:03000000020831C2
:0C083100787FE4F6D8FD7581210208787C
:10093F00120C8512061ED374C8951DE4951C501019
:10094F00C3E51D942CE51C94015005120B3E80331A
:10095F00D37464951DE4951C5010C3E51D94C8E530
:10096F001C940050051209FD8019D37484951D74D1
:10097F0003951C500EC3E51D94E8E51C940350032A
:10098F00120BDFAFA0E48F0DF50CF50BF50AFD7F11
:10099F002A12079FE4851D0D851C0CF50BF50AFD2A
:0609AF00FF12079F808D7E
:0C0C8500120C67120A85120B6E020C9113
:10000E000000000000000000002F000000000700AC
:10001E00070000147F147F1400242A7F2A12006226
:10002E0064081323003649552250000005030000D2
:10003E0000001C224100000041221C000014083E5A
:10004E0008140008083E0808000000A06000000820
:10005E000808080800006060000000201008040274
:10006E00003E5149453E0000427F40000042615132
:10007E004946002141454B31001814127F100027CC
:10008E0045454539003C4A4949300001710905038F
:10009E0000364949493600064949291E00003636C0
:1000AE000000000056360000000814224100001423
:1000BE001414141400004122140800020151090600
:1000CE0000324959513E007C1211127C007F494981
:1000DE004936003E41414122007F4141221C007FB2
:1000EE0049494941007F09090901003E4149497AC0
:1000FE00007F0808087F0000417F4100002040413A
:10010E003F01007F08142241007F40404040007FA5
:10011E00020C027F007F0408107F003E4141413EE9
:10012E00007F09090906003E4151215E007F091931
:10013E0029460046494949310001017F0101003F2E
:10014E004040403F001F2040201F003F4038403FAE
:10015E000063140814630007087008070061514912
:10016E00454300007F41410000552A552A550000A5
:10017E0041417F0000040201020400404040404023
:10018E00000001020400002054545478007F4844BB
:10019E00443800384444442000384444487F0038F2
:1001AE005454541800087E0901020018A4A4A47C1B
:1001BE00007F080404780000447D400000408084E5
:1001CE007D00007F102844000000417F4000007C2D
:1001DE0004180478007C0804047800384444443839
:1001EE0000FC242424180018242418FC007C080485
:1001FE00040800485454542000043F444020003C5E
:10020E004040207C001C2040201C003C4030403CE4
:10021E00004428102844001CA0A0A07C0044645474
:08022E004C44141414141414C0
:0D0C77007F887E13EF1F70011EEF4E70F797
:010C8400224D
:100A8500C290120C77D290C291120C77D291120CAF
:100A950077E4FD7F21120BBBE4FD7F9C120BBBE4C9
:100AA500FD7F07120BBBE4FD7F17120BBBE4FD7F37
:100AB50020120BBB120B6EE4FD7F0C120BBBC29117
:010AC500220E
:100B6E00E4FDFF120C0375080F7509C07D01E4FF4B
:100B7E00120BBBE509150970021508D3E50994009F
:060B8E00E508940050E6AA
:010B9400223E
:100C03008D1AEFC39454501AE51AC394065013EF88
:100C13004480FFE4FD120BBBE51A4440FFE4FD12E0
:030C23000BBB22E6
:020B06008F1A44
:100B080074E0251AF51AE4F51B75F006E51AA42415
:100B18000EF582E5F03400F583E582251BF582E4C5
:100B28003583F583E493FF7D01120BBB051BE51BA1
:050B3800C3940640D447
:010B3D002295
:100B95008B0C8A0D890E120C03AB0CAA0DA90E1233
:100BA5000236FF6010120B067401250EF50EE435B2
:060BB5000DF50D80E422A5
:10079F00E4F519120C03AF0DAE0CAD0BAC0AEC3334
:1007AF00500F1202E38F0D8E0C8D0B8C0A7F2D8054
:1007BF00027F20120B06AF0DAE0CAD0BAC0AEC4D49
:1007CF004E4F70057F30020B06AF0DAE0CAD0BAC6C
:1007DF000AEC4D4E4F6031E47B0AFAF9F8120A41E8
:1007EF00EB2430FF740E2519F8A607AF0DAE0CAD34
:1007FF000BAC0AE47B0AFAF9F8120A418F0D8E0C42
:10080F008D0B8C0A051980C11519C3E519648094E5
:10081F0080400E740E2519F8E6FF120B061519808D
:01082F00E9DF
:0108300022A5
:0608BD008F0C8D0D8B0E67
:1008C300E50F5407700BE50F131313541FF517802F
:1008D3000AE50F131313541F04F517E4F515F51662
:1008E300C3E5169517E51594005050AD0DAF0C12E6
:1008F3000C03E4F513F514AF0E7E00C3E5149FE576
:10090300139E502BAC15AD1612027CE5142FFFE598
:10091300133EAB10AA11A9128F82F58312024FFF67
:100923007D01120BBB0514E51470CC051380C805BB
:0B0933000D0516E51670A9051580A53E
:01093E002296
:100BBB00C291ED7004C2928002D2927E08EF30E7B0
:100BCB0004D2938002C293C294EF25E0FFD294DE4D
:030BDB00ECD291C8
:010BDE0022F4
:1003DC00526163696E670041626F75740020202062
:1003EC00202020202020202020202000F0F8181889
:1003FC00181818181818181818181818181818F891
:10040C00E00000000000000000000000FFFF000002
:10041C00000000000000000000000000000000FFD1
:10042C00FF03FB0B1B33CF1E3CF0C000070F0CFC73
:10043C00FC0C0C0CCCEC6C6CECCC8C0C0C0C0C0F7D
:10044C0087C0E76464E4C4070000FFFF00000001FC
:10045C00030303071F1C1C181D0F070303030303CF
:10046C00070F0D181C1E1F0F0303010000000000D6
:10047C0000C0F0F87C3E1ECFC76767232307070731
:10048C000F1E3E7CF8F0C0000000000000000000D1
:10049C00007FFFF3C0000F0300000000000000000D
:1004AC00000000C0FBFF7F00000000000000000007
:1004BC00000001071F7FFCF0E0606060606060E09E
:1004CC00F0FC7F1F0701000000000000000000008E
:1004DC00000000000000031F7FFFFBDBDBFBFF7F46
:1004EC001F0300000000000000000000FF03DCFF01
:0204FC0003E318
:020C2600C18883
:0C0C9100751C00751D64120B6E0206EE4F
:1006EE00E4F508750905AE1CAF1DFC7D0A12028EDD
:1006FE00EF24F6F50BEE34FFF50AFE9004F875F0D4
:10070E0003E50B120302EE75F003A42583F583E4D3
:10071E0093FB740193FA740293F9120C3FEFD39486
:10072E000E5014EF75F006A4FFC374549FFFE495AA
:10073E00F0C313EF13F508750F20E50BAE0A78071B
:10074E00C333CE33CED8F924F8F974033E7510FFB7
:10075E00F51189127B207D017F1A1208BD7BFF7A6D
:10076E000379E9AD09E4FF120B959004F875F003D7
:10077E00E50B120302E50A75F003A42583F583E465
:10078E0093FB740193FA740293F9AD09AF08020B4F
:01079E0095C5
:1009B5007E6EEF6021D3E51D9464E51C940050061E
:1009C500EEFD7C00800AE51D24F6FDE51C34FFFCE8
:1009D5008C1C8D1D801FAF06C3E51D9FE51C940073
:1009E50040067E007F648009E51D240AFFE4351C6E
:0809F500FE8E1C8F1D0206EEB0
:1009FD0030070930083DC2087F01800A30050A30F2
:100A0D000831C208E4FF0209B5300619300824C2C6
:100A1D0008E51C701EE51D24926007240A7014025F
:100A2D000CA6020C9D300009300808120C91C2086A
:030A3D0022D208BA
:010A40002293
:020C2800C10900
:100C6700758901758CF8758A3CD2AFD2A9D28C22CE
:100AC6008F0B8E0A8D098C08E4FFFEFDFCAB0BAA8A
:100AD6000AA909A808D31202F140223009EA120C29
:100AE60067E50B24FFF50BE50A34FFF50AE5093443
:100AF600FFF509E50834FFF508C20980CB7F01221E
:03000B00020003ED
:06000300D209120C673265
:100C2A00C103C107C104C105C101C102C100C10696
:10061E0020A7157F097E007D007C00120AC6EF60C0
:10062E000720A704D2008002C20020A6157F097EF3
:10063E00007D007C00120AC6EF600720A604D206D9
:10064E008002C20620A5157F097E007D007C001267
:10065E000AC6EF600720A504D2038002C20320A4BD
:10066E00157F097E007D007C00120AC6EF60072010
:10067E00A404D2078002C20720A3157F097E007D45
:10068E00007C00120AC6EF600720A304D204800289
:10069E00C20420A2157F097E007D007C00120AC6CE
:1006AE00EF600720A204D2058002C20520A1157FAB
:1006BE00097E007D007C00120AC6EF600720A104AF
:1006CE00D2018002C20120A0147F097E007D007C31
:1006DE0000120AC6EF600620A003D20222C2022236
:1004FE0000000000000000000000000000000000EE
:10050E0000000000000080000000000080E0FEF807
:10051E00E08000000000000000000000000000006D
:10052E00000000000000000000000080E0F0F8FC79
:10053E00FCFE7F7F3FFFFFFFFF7F3F3F3F7F7FFF41
:10054E00FFFFCF78E0000000000000000000000078
:10055E000000000010303878F8F8F8FFFF0F0301A4
:10056E00C8C0C8C000000303010000C0C000C080A6
:10057E00010307FEFFFF0000804040404040404026
:10058E0000000000000000008001034F3F38000013
:10059E0023070F030E00000000000010070F0723B3
:1005AE00000000BF1F138823000000008080800021
:1005BE0008000004020001000000004000000000DE
:1005CE000004F830302020252424400010100800AC
:1005DE0000000001E100100800040201000000010B
:1005EE0040800000010820808000008046300020FE
:1005FE002010C780000010000000000000000080E6
:10060E00020000E0FB80000000000000000000007F
:020C3A00C18A6D
:090C9D00751C03751D84020B6E29
:100BDF00300009300A08120C91C20A22D20A750F8E
:100BEF00307510FF7511047512FE7B30E4FD7F1216
:030BFF001208BD1C
:010C020022CF
:020C3C00C18B6A
:090CA600751C00751DC8020B6EDF
:100B3E00300707300B26C20B8022300507300B1C06
:100B4E00C20B8018300607300B12C20B800E30001D
:0F0B5E0009300B08120CAFC20B22D20B120C5431
:010B6D002265
:100C5400051EE4851E0DF50CF50BF50A7D037F32A8
:030C640002079FE5
:030CAF00020C91A3
:10083D0002093FE493A3F8E493A34003F68001F289
:10084D0008DFF48029E493A3F85407240CC8C333BC
:10085D00C4540F4420C8834004F456800146F6DF8B
:10086D00E4800B0102040810204080900C26E47EE9
:10087D00019360BCA3FF543F30E509541FFEE49380
:10088D00A360010ECF54C025E060A840B8E493A347
:10089D00FAE493A3F8E493A3C8C582C8CAC583CA72
:1008AD00F0A3C8C582C8CAC583CADFE9DEE780BE2A
:010C3E0000B5
:10023600BB010689828A83E0225002E722BBFE02C6
:09024600E32289828A83E49322F9
:10024F00BB010CE58229F582E5833AF583E0225064
:10025F0006E92582F8E622BBFE06E92582F8E222AE
:0D026F00E58229F582E5833AF583E49322C8
:10027C00EF8DF0A4A8F0CF8CF0A428CE8DF0A42E96
:02028C00FE2250
:10028E00BC000BBE0029EF8DF084FFADF022E4CC54
:10029E00F875F008EF2FFFEE33FEEC33FCEE9DEC1D
:1002AE00984005FCEE9DFE0FD5F0E9E4CEFD22ED63
:1002BE00F8F5F0EE8420D21CFEADF075F008EF2FAD
:1002CE00FFED33FD4007985006D5F0F222C398FD9E
:0502DE000FD5F0EA223B
:100A4100C2D5E830E70FB2D5E4C39BFBE49AFAE4E0
:100A510099F9E498F8EC30E717B2D5120A77120346
:100A61004AE4C39BFBE49AFAE499F9E498F8800319
:100A710012034A30D50DE4C39FFFE49EFEE49DFDC1
:040A8100E49CFC22D3
:0E02E300C3E49FFFE49EFEE49DFDE49CFC222C
:1002F100EB9FF5F0EA9E42F0E99D42F0E89C45F063
:0103010022D9
:0C030200A42582F582E5F03583F5832206
:100C3F00E4FFFE120236600C0FEF70010E09E9702F
:050C4F00F20A80EF2213
:10030E0075F008758200EF2FFFEE33FECD33CDCCA6
:10031E0033CCC58233C5829BED9AEC99E582984029
:10032E000CF582EE9BFEED9AFDEC99FC0FD5F0D606
:10033E00E4CEFBE4CDFAE4CCF9A88222B800C1B930
:10034E000059BA002DEC8BF084CFCECDFCE5F0CB6E
:10035E00F97818EF2FFFEE33FEED33FDEC33FCEBA7
:10036E0033FB10D703994004EB99FB0FD8E5E4F962
:10037E00FA227818EF2FFFEE33FEED33FDEC33FC4F
:10038E00C933C910D7059BE99A4007EC9BFCE99A43
:10039E00F90FD8E0E4C9FAE4CCFB2275F010EF2F88
:1003AE00FFEE33FEED33FDCC33CCC833C810D70788
:1003BE009BEC9AE899400AED9BFDEC9AFCE899F8C3
:0E03CE000FD5F0DAE4CDFBE4CCFAE4C8F92256
:00000001FF
