:03000000020A34BD
:0C0A3400787FE4F6D8FD758170020A7B23
:10102C001210C7120978E51E14600814700A120712
:0D103C00CA80F012100980EB120CEF80E664
:0C10C70012108B120DD7120F2D0210DD3D
:10000E000000000000000000002F000000000700AC
:10001E00070000147F147F1400242A7F2A12006226
:10002E0064081323003649552250000005030000D2
:10003E0000001C224100000041221C000014083E5A
:10004E0008140008083E0808000000A06000000820
:10005E000808080800006060000000201008040274
:10006E00003E5149453E0000427F40000042615132
:10007E004946002141454B31001814127F100027CC
:10008E0045454539003C4A4949300001710905038F
:10009E0000364949493600064949291E00003636C0
:1000AE000000000056360000000814224100001423
:1000BE001414141400004122140800020151090600
:1000CE0000324959513E007C1211127C007F494981
:1000DE004936003E41414122007F4141221C007FB2
:1000EE0049494941007F09090901003E4149497AC0
:1000FE00007F0808087F0000417F4100002040413A
:10010E003F01007F08142241007F40404040007FA5
:10011E00020C027F007F0408107F003E4141413EE9
:10012E00007F09090906003E4151215E007F091931
:10013E0029460046494949310001017F0101003F2E
:10014E004040403F001F2040201F003F4038403FAE
:10015E000063140814630007087008070061514912
:10016E00454300007F41410000552A552A550000A5
:10017E0041417F0000040201020400404040404023
:10018E00000001020400002054545478007F4844BB
:10019E00443800384444442000384444487F0038F2
:1001AE005454541800087E0901020018A4A4A47C1B
:1001BE00007F080404780000447D400000408084E5
:1001CE007D00007F102844000000417F4000007C2D
:1001DE0004180478007C0804047800384444443839
:1001EE0000FC242424180018242418FC007C080485
:1001FE00040800485454542000043F444020003C5E
:10020E004040207C001C2040201C003C4030403CE4
:10021E00004428102844001CA0A0A07C0044645474
:08022E004C44141414141414C0
:10107900AF0FAE0EAD0DAC0C22E47B0AFAF9F80203
:021089000D93C5
:0D10AB007F887E13EF1F70011EEF4E70F75F
:0110B8002215
:100DD700C2901210ABD290C2911210ABD2911210E6
:100DE700AB7F21120E107F9C120F9F7F07120E10F0
:100DF7007F17120F9FE4FD7F20120F9F120F2DE424
:100E0700FD7F0C120F9FC29122E4FD120F9FE4FD9C
:010E170022B8
:100F2D00E4FDFF120FC3750A0F750BC07D01E4FFC1
:100F3D00120F9FE50B150B7002150AD3E50B9400EC
:060F4D00E50A940050E6E5
:010F5300227B
:100FC3008D1CEFC39454501AE51CC394065013EFC1
:100FD3004480FFE4FD120F9FE51C4440FFE4FD1233
:030FE3000F9F223B
:020E98008F1CAD
:100E9A0074E0251CF51CE4F51D75F006E51CA42478
:100EAA000EF582E5F03400F583E582251DF582E42E
:100EBA003583F583E493FF7D01120F9F051DE51D20
:050ECA00C3940640D4B2
:010ECF002200
:100F54008B0A8A0B890C120FC3AB0AAA0BA90C12B9
:100F64000236FF6010120E987401250CF50CE4355E
:060F74000BF50B80E422E6
:100BB700E4F51B120FC3121079EC33500F12039296
:100BC7008F0F8E0E8D0D8C0C7F2D80027F20120EC5
:100BD70098121079EC4D4E4F70057F30020E981227
:100BE7001079EC4D4E4F6020121082EB2430FF74C9
:100BF70010251BF8A6071210791210828F0F8E0E80
:100C07008D0D8C0C051B80D7151BC3E51B648094C9
:100C170080400E7410251BF8E6FF120E98151B80F6
:010C2700E9E3
:010C280022A9
:060AC0008F0D8D0E8B0F5F
:100AC600E5105407700BE510131313541FF5188027
:100AD6000AE510131313541F04F518E4F516F51759
:100AE600C3E5179518E51694005050AD0EAF0D12DC
:100AF6000FC3E4F514F515AF0F7E00C3E5159FE5AA
:100B0600149E502BAC16AD1712027CE5152FFFE58F
:100B1600143EAB11AA12A9138F82F58312024FFF5E
:100B26007D01120F9F0515E51570CC051480C805CB
:0B0B36000E0517E51770A9051680A535
:010B41002291
:100F9F00C291ED7004C2928002D2927E08EF30E7C8
:100FAF0004D2938002C293C294EF25E0FFD294DE65
:030FBF00ECD291E0
:010FC200220C
:10058A0041626F7574004D696E650020202020203D
:10059A00202020202020202020000000000000C071
:1005AA00F0F87C3E1ECFC7676723230707070F1E95
:1005BA003E7CF8F0C0000000000000000000007F50
:1005CA00FFF3C0000F03000000000000000000005D
:1005DA0000C0FBFF7F0000000000000000000000D8
:1005EA0001071F7FFCF0E0606060606060E0F0FC83
:1005FA007F1F07010000000000000000000000004B
:10060A0000000000031F7FFFFBDBDBFBFF7F1F03F4
:10061A0000000000000000000000000000000000D0
:10062A000038F8F8F0E0E0E0FEFEFEE0E0E0E0F896
:10063A00F838000000000000000080808787EFFE85
:10064A00FEFFFFFFFFFFFFF1F1F9FFFF8F0F070F1B
:10065A00DFFFFEFEFF87878080000103C3E3EFFF11
:10066A00FFFFFFFFFFE7C381818181C3FFFFFFFF18
:10067A00FFFFFFFFFFE3C3030300000001010100C6
:10068A0000393F3F1F070F0F7FFFFF0F0F070F3F75
:10069A003F3D0000010101000000FF058AFF0590AF
:080F7A00011E00011F01C18BE3
:10104900E51F75F003A424A4F582E43406F583E4CE
:0B10590093FB740193FA740293F922D8
:0910DD00E4F51E120F2D020C9324
:100C9300121049121064EFD3940E5015EF75F0063D
:100CA300A4FFC374549FFFE495F0C313EF13FF80B5
:100CB300027F008F08E51F75F080A424A4F9740552
:100CC30035F07511FFF51289137510207B207D0116
:100CD3007F1A120AC07BFF7A0579957D05E4FF121E
:0C0CE3000F541210497D05AF08020F5499
:100CEF00300716300B50C20BE51FD3940050047F12
:100CFF0001801DE51F14FF8017300518300B37C218
:100D0F000BE51FC3940140047F008004E51F04FF1F
:100D1F008F1F801D300612300B1CC20BE51F6006A3
:100D2F00147013020C29020003300008C20B751F48
:060D3F0001020C93D20B2F
:010D4500228B
:080F8200C10C0468000000002E
:10108B00758901758CF8758A3CD2AFD2A9D28C22A6
:100E18008F0B8E0A8D098C08E4FFFEFDFCAB0BAA34
:100E28000AA909A808D31203A04022300CEA12101C
:100E38008BC20CE50B24FFF50BE50A34FFF50AE538
:100E48000934FFF509E50834FFF50880CB7F012256
:03000B00020FE6FB
:100FE600C0E0C0D0D20CE56B2401F56BE4356AF5A0
:100FF6006AE43569F569E43568F56812108BD0D076
:03100600D0E03205
:100F8A00C103C107C104C105C101C102C100C10633
:1009780020A70C120A00600720A704D2008002C238
:100988000020A60C120A00600720A604D2068002E6
:10099800C20620A50C120A0D600720A504D2038008
:1009A80002C20320A40C120A0D600720A404D20777
:1009B8008002C20720A30C120A1A600720A304D2DF
:1009C800048002C20420A20C120A1A600720A204A2
:1009D800D2058002C20520A10C120A27600720A1B7
:1009E80004D2018002C20120A00B120A276006204F
:1009F800A003D20222C202227F097E007D007C0071
:100A0800120E18EF227F097E007D007C00120E185E
:100A1800EF227F097E007D007C00120E18EF227FF6
:0C0A2800097E007D007C00120E18EF22F9
:1006AA00004048104058C028A80000000000000080
:1006BA0000000000000080000000000080E0FEF85A
:1006CA00E0800000008080909048E8585040400048
:1006DA00000E010405031F0302020280E0F0F8FC89
:1006EA00FCFE7F7F3FFFFFFFFF7F3F3F3F7F7FFF94
:1006FA00FFFFCF78E00000000818070000000000A4
:10070A000000000010303878F8F8F8FFFF0F0301F6
:10071A00C8C0C8C000000303010000C0C000C080F8
:10072A00010307FEFFFF0000804040404040404078
:10073A0000000000000000008001034F3F38000065
:10074A0023070F030E00000000000010070F072305
:10075A00000000BF1F138823000000008080800073
:10076A000800000402000100000000400000000030
:10077A000004F830302020252424400010100800FE
:10078A0000000001E100100800040201000000015D
:10079A004080000001082080800000804630002050
:1007AA002010C78000001000000000000000008038
:1007BA00020000E0FB8000000000000000000000D2
:020F9A00C18D07
:06000300751E01020F2D25
:10100900300008300D07C20D0210DDD20D75103009
:101019007511FF7512067513AA7B30E4FD7F121254
:021029000AC0FB
:01102B0022A2
:1008AA0054696D653A003A28205072657373205373
:1008BA0054415254200000000000000000000000D3
:1008CA00003E0000000000003A2A2E00000000004E
:1008DA002A2A3E00000000000E083E000000000028
:1008EA002E2A3A00000000003E2A3A0000000000CA
:1008FA0002023E00000000003E2A3E000000003EC8
:10090A000606060600007F7F7F7F7F7F7F007F7F4E
:10091A00415D417F7F007F7F7F417F7F7F007F7FB7
:10092A004555517F7F007F7F5555417F7F007F7FEF
:10093A007177417F7F007F7F5155457F7F007F7FA1
:10094A004155457F7F007F7F7D7D417F7F007F7F8F
:10095A004155417F7F007F417979797F7F007F41CF
:0E096A00414141417F00006314081463000006
:020F9C00C1880A
:100E5800E5702403F8E2FFE5702404F8E222E508CF
:100E680075F006A4242822E5702403F8E222FF3353
:100E780095E0FEEF2401FFE43EFEA870222DF8E67F
:100E880075F0648422E50A75F008A4FF751008223D
:100C2900751E0275243CE4F525856B67856A668522
:100C39006965856864F526F527F522F523C20AC298
:100C490009AE6AAF6B120D88E4F508E4F509120DD7
:100C5900467C007D0812028EED64014C700C120E68
:100C6900662509F8766E05258008120E662509F8AD
:100C7900760A0509E509C3940640D30508E508C3C2
:0A0C8900940A40C7120F2D020ED08E
:100F0400C3EF64809480401DEF6480F874096480AA
:100F1400984012ED64809480400BED6480F8740571
:090F24006480985002D322C3221C
:10109B00EF120E682DF8E6C394644002D322C322EC
:0E10B900EF120E68120E8575F064A42BF6225D
:0A10D300EF120E68120E85AFF02236
:100406001570A870EDF21570A870EFF215701570E2
:0204160015705F
:10041800A8700808E4F2300A03020583120E58FD9A
:10042800120F045003020583120E58FD1210D3EF69
:10043800640A6003020583120E6F14A870F2120E8C
:100448006FFEFD3395E0FCED2401FDE43CFCA87053
:10045800E2FB3395E0FAD3EB9DEC6480F8EA648024
:10046800985072120E5F14A87008F2120E5FFD33D6
:1004780095E0FCED2401FBE43CFAA87008E2FDF5E8
:10048800823395E0F583D3E5829BEA6480F8E583BF
:100498006480985038A870E2FF120F044027120EAB
:1004A8006FFDA870E2FFB5050B120E5FFDA870087E
:1004B800E26D6011A87008E2FD12109B5007A87049
:1004C8000808E204F2A87008E204F2809EA870E22C
:1004D80004F2020446AF06120E5FFDA8700808E297
:1004E800FB1210B91524E524B5252DD20AD209C36B
:1004F800E56B9567FFE56A9566FEE5699565FDE537
:10050800689564FCE47BE87A03F9F81203008E2608
:100518008F27120B42020583A8700808E2D39400C3
:100528005059120E6F14A870F2120E6F120E76E266
:10053800FD3395E0FCD3ED9FEE6480F8EC64809881
:100548005039120E5F14A87008F2120E5F120E7660
:1005580008E2FDFB3395E0FAD3EB9FEE6480F8EAFE
:10056800648098500FA870E2FF120406A87008E291
:0B05780004F280D6A870E204F280AE0E
:07058300E5702405F570226C
:100B4200E4F50CF50AE4F50BE50A120E68250B1222
:100B52000E8685F00CE50AB5220BE50BB52306746B
:100B62000B250CF50CE50C75F008A424C0F97408EB
:100B720035F07511FFF5128913120E8D7B08AD0B3E
:100B8200120AC0300A1CAD0BAF0A12109B5013128E
:100B92000E8D7511FF7512097513707B08AD0B125E
:100BA2000AC0050BE50BC39406409D050AE50AC37E
:040BB200940A4091D0
:010BB600221C
:100ED000300A2D7BFF30091D7A0879AA7D02E4FFD4
:100EE000120F54E485270F85260EF50DF50C7D02B3
:100EF0007F1F020BB77A0879B07D02E4FF020F541E
:040F0000120B42226C
:1007CA003002312008030208A6C208AD23AF221264
:1007DA0010D3BF0A047B098011AD23AF221210D3B4
:1007EA00EF640960030208A67B0AAD23AF22121048
:1007FA00B90208A63001232008030208A6C208ADE0
:10080A0023AF2212109B5008D20A120B420208A6EA
:10081A00AD23AF221204060208A630000830087C75
:10082A00C2080210DD300608300871C208020C291D
:10083A00300717300866C208E4C395225006E5223D
:10084A0014FF80027F098F22805230051830084C2D
:10085A00C208E522C394095006E52204FF80027FFC
:10086A00008F228037300317300831C208E4C3955D
:10087A00235006E52314FF80027F058F23801D3055
:10088A000418300817C208E523C394055006E52367
:0F089A0004FF80027F008F238002D208120ED04D
:0108A900222C
:100A400002102CE493A3F8E493A34003F68001F290
:100A500008DFF48029E493A3F85407240CC8C333B7
:100A6000C4540F4420C8834004F456800146F6DF86
:100A7000E4800B0102040810204080900F7AE47E8D
:100A8000019360BCA3FF543F30E509541FFEE4937B
:100A9000A360010ECF54C025E060A840B8E493A342
:100AA000FAE493A3F8E493A3C8C582C8CAC583CA6D
:100AB000F0A3C8C582C8CAC583CADFE9DEE780BE25
:010F9E000052
:10023600BB010689828A83E0225002E722BBFE02C6
:09024600E32289828A83E49322F9
:10024F00BB010CE58229F582E5833AF583E0225064
:10025F0006E92582F8E622BBFE06E92582F8E222AE
:0D026F00E58229F582E5833AF583E49322C8
:10027C00EF8DF0A4A8F0CF8CF0A428CE8DF0A42E96
:02028C00FE2250
:10028E00C2D5EC30E709B2D5E4C39DFDE49CFCEE8B
:10029E0030E715B2D5E4C39FFFE49EFE1203B1C34F
:1002AE00E49DFDE49CFC80031203B130D507C3E44A
:0602BE009FFFE49EFE22FA
:1002C40075F008758200EF2FFFEE33FECD33CDCCF1
:1002D40033CCC58233C5829BED9AEC99E582984074
:1002E4000CF582EE9BFEED9AFDEC99FC0FD5F0D651
:1002F400E4CEFBE4CDFAE4CCF9A88222B800C1B97B
:100304000059BA002DEC8BF084CFCECDFCE5F0CBB8
:10031400F97818EF2FFFEE33FEED33FDEC33FCEBF1
:1003240033FB10D703994004EB99FB0FD8E5E4F9AC
:10033400FA227818EF2FFFEE33FEED33FDEC33FC99
:10034400C933C910D7059BE99A4007EC9BFCE99A8D
:10035400F90FD8E0E4C9FAE4CCFB2275F010EF2FD2
:10036400FFEE33FEED33FDCC33CCC833C810D707D2
:100374009BEC9AE899400AED9BFDEC9AFCE899F80D
:0E0384000FD5F0DAE4CDFBE4CCFAE4C8F922A0
:100D9300C2D5E830E70FB2D5E4C39BFBE49AFAE48B
:100DA30099F9E498F8EC30E717B2D5120DC912039C
:100DB30000E4C39BFBE49AFAE499F9E498F880030E
:100DC30012030030D50DE4C39FFFE49EFEE49DFDB6
:040DD300E49CFC227E
:0E039200C3E49FFFE49EFEE49DFDE49CFC227C
:1003A000EB9FF5F0EA9E42F0E99D42F0E89C45F0B3
:0103B000222A
:100D4600AC6CAD6DAE6EAF6F7810EC4D4E4F70045F
:100D56007CA57DA5C3EC13FCED13FDEE13FEEF138E
:100D6600FF5010EC64CCFCED644CFDEE644EFEEFDF
:100D760064CEFFD8DF8C6C8D6D8E6E8F6FEE547FD8
:0D0D8600FE228E6C8F6D74A5F56EF56F2248
:10106400E4FFFE120236600C0FEF70010E09E97006
:05107400F20A80EF22EA
:1003B100BC000BBE0029EF8DF084FFADF022E4CC30
:1003C100F875F008EF2FFFEE33FEEC33FCEE9DECF9
:1003D100984005FCEE9DFE0FD5F0E9E4CEFD22ED3F
:1003E100F8F5F0EE8420D21CFEADF075F008EF2F89
:1003F100FFED33FD4007985006D5F0F222C398FD7A
:050401000FD5F0EA2216
:00000001FF
