:03000000020831C2
:0C083100787FE4F6D8FD7581210208787C
:10093F00120C8712061ED374C8951DE4951C501017
:10094F00C3E51D942CE51C94015005120B40803318
:10095F00D37464951DE4951C5010C3E51D94C8E530
:10096F001C940050051209B58019D37484951D7419
:10097F0003951C500EC3E51D94E8E51C940350032A
:10098F00120BE1AFA0E48F0DF50CF50BF50AFD7F0F
:10099F002A12079FE4851D0D851C0CF50BF50AFD2A
:0609AF00FF12079F808D7E
:0C0C8700120C69120A87120B70020C9309
:10000E000000000000000000002F000000000700AC
:10001E00070000147F147F1400242A7F2A12006226
:10002E0064081323003649552250000005030000D2
:10003E0000001C224100000041221C000014083E5A
:10004E0008140008083E0808000000A06000000820
:10005E000808080800006060000000201008040274
:10006E00003E5149453E0000427F40000042615132
:10007E004946002141454B31001814127F100027CC
:10008E0045454539003C4A4949300001710905038F
:10009E0000364949493600064949291E00003636C0
:1000AE000000000056360000000814224100001423
:1000BE001414141400004122140800020151090600
:1000CE0000324959513E007C1211127C007F494981
:1000DE004936003E41414122007F4141221C007FB2
:1000EE0049494941007F09090901003E4149497AC0
:1000FE00007F0808087F0000417F4100002040413A
:10010E003F01007F08142241007F40404040007FA5
:10011E00020C027F007F0408107F003E4141413EE9
:10012E00007F09090906003E4151215E007F091931
:10013E0029460046494949310001017F0101003F2E
:10014E004040403F001F2040201F003F4038403FAE
:10015E000063140814630007087008070061514912
:10016E00454300007F41410000552A552A550000A5
:10017E0041417F0000040201020400404040404023
:10018E00000001020400002054545478007F4844BB
:10019E00443800384444442000384444487F0038F2
:1001AE005454541800087E0901020018A4A4A47C1B
:1001BE00007F080404780000447D400000408084E5
:1001CE007D00007F102844000000417F4000007C2D
:1001DE0004180478007C0804047800384444443839
:1001EE0000FC242424180018242418FC007C080485
:1001FE00040800485454542000043F444020003C5E
:10020E004040207C001C2040201C003C4030403CE4
:10021E00004428102844001CA0A0A07C0044645474
:08022E004C44141414141414C0
:0D0C79007F887E13EF1F70011EEF4E70F795
:010C8600224B
:100A8700C290120C79D290C291120C79D291120CA9
:100A970079E4FD7F21120BBDE4FD7F9C120BBDE4C1
:100AA700FD7F07120BBDE4FD7F17120BBDE4FD7F31
:100AB70020120BBD120B70E4FD7F0C120BBDC2910F
:010AC700220C
:100B7000E4FDFF120C0575080F7509C07D01E4FF47
:100B8000120BBDE509150970021508D3E50994009B
:060B9000E508940050E6A8
:010B9600223C
:100C05008D1AEFC39454501AE51AC394065013EF86
:100C15004480FFE4FD120BBDE51A4440FFE4FD12DC
:030C25000BBD22E2
:020B08008F1A42
:100B0A0074E0251AF51AE4F51B75F006E51AA42413
:100B1A000EF582E5F03400F583E582251BF582E4C3
:100B2A003583F583E493FF7D01120BBD051BE51B9D
:050B3A00C3940640D445
:010B3F002293
:100B97008B0C8A0D890E120C05AB0CAA0DA90E122F
:100BA7000236FF6010120B087401250EF50EE435AE
:060BB7000DF50D80E422A3
:10079F00E4F519120C05AF0DAE0CAD0BAC0AEC3332
:1007AF00500F1202E38F0D8E0C8D0B8C0A7F2D8054
:1007BF00027F20120B08AF0DAE0CAD0BAC0AEC4D47
:1007CF004E4F70057F30020B08AF0DAE0CAD0BAC6A
:1007DF000AEC4D4E4F6031E47B0AFAF9F8120A43E6
:1007EF00EB2430FF740E2519F8A607AF0DAE0CAD34
:1007FF000BAC0AE47B0AFAF9F8120A438F0D8E0C40
:10080F008D0B8C0A051980C11519C3E519648094E5
:10081F0080400E740E2519F8E6FF120B081519808B
:01082F00E9DF
:0108300022A5
:0608BD008F0C8D0D8B0E67
:1008C300E50F5407700BE50F131313541FF517802F
:1008D3000AE50F131313541F04F517E4F515F51662
:1008E300C3E5169517E51594005050AD0DAF0C12E6
:1008F3000C05E4F513F514AF0E7E00C3E5149FE574
:10090300139E502BAC15AD1612027CE5142FFFE598
:10091300133EAB10AA11A9128F82F58312024FFF67
:100923007D01120BBD0514E51470CC051380C805B9
:0B0933000D0516E51670A9051580A53E
:01093E002296
:100BBD00C291ED7004C2928002D2927E08EF30E7AE
:100BCD0004D2938002C293C294EF25E0FFD294DE4B
:030BDD00ECD291C6
:010BE00022F2
:1003DC00526163696E670041626F75740020202062
:1003EC00202020202020202020202000F0F8181889
:1003FC00181818181818181818181818181818F891
:10040C00E00000000000000000000000FFFF000002
:10041C00000000000000000000000000000000FFD1
:10042C00FF03FB0B1B33CF1E3CF0C000070F0CFC73
:10043C00FC0C0C0CCCEC6C6CECCC8C0C0C0C0C0F7D
:10044C0087C0E76464E4C4070000FFFF00000001FC
:10045C00030303071F1C1C181D0F070303030303CF
:10046C00070F0D181C1E1F0F0303010000000000D6
:10047C0000C0F0F87C3E1ECFC76767232307070731
:10048C000F1E3E7CF8F0C0000000000000000000D1
:10049C00007FFFF3C0000F0300000000000000000D
:1004AC00000000C0FBFF7F00000000000000000007
:1004BC00000001071F7FFCF0E0606060606060E09E
:1004CC00F0FC7F1F0701000000000000000000008E
:1004DC00000000000000031F7FFFFBDBDBFBFF7F46
:1004EC001F0300000000000000000000FF03DCFF01
:0204FC0003E318
:020C2800C18881
:090C9300751C00751D64020B7054
:1006EE00E4F508750905AE1CAF1DFC7D0A12028EDD
:1006FE00EF24F6F50BEE34FFF50AFE9004F875F0D4
:10070E0003E50B120302EE75F003A42583F583E4D3
:10071E0093FB740193FA740293F9120C41EFD39484
:10072E000E5014EF75F006A4FFC374549FFFE495AA
:10073E00F0C313EF13F508750F20E50BAE0A78071B
:10074E00C333CE33CED8F924F8F974033E7510FFB7
:10075E00F51189127B207D017F1A1208BD7BFF7A6D
:10076E000379E9AD09E4FF120B979004F875F003D5
:10077E00E50B120302E50A75F003A42583F583E465
:10078E0093FB740193FA740293F9AD09AF08020B4F
:01079E0097C3
:1009FE007E6EEF6020D3E51D9464E51C94005006D6
:100A0E00EEFD7C00800AE51D24F6FDE51C34FFFC9E
:100A1E008C1C8D1D22AF06C3E51D9FE51C94004066
:100A2E00067E007F648009E51D240AFFE4351CFE66
:040A3E008E1C8F1D5E
:010A42002291
:1009B50030070930083FC2087F01800A30050C3036
:1009C5000833C208E4FF1209FE802A3006193008F0
:1009D50024C208E51C701EE51D24926007240A70D8
:1009E50014020CA5020C9C300009300808120C9367
:0809F500C20822D2081206EE2E
:0109FD0022D7
:020C2A00C109FE
:100C6900758901758CF8758A3CD2AFD2A9D28C22CC
:100AC8008F0B8E0A8D098C08E4FFFEFDFCAB0BAA88
:100AD8000AA909A808D31202F140223009EA120C27
:100AE80069E50B24FFF50BE50A34FFF50AE509343F
:100AF800FFF509E50834FFF508C20980CB7F01221C
:03000B00020003ED
:06000300D209120C693263
:100C2C00C103C107C104C105C101C102C100C10694
:10061E0020A7157F097E007D007C00120AC8EF60BE
:10062E000720A704D2008002C20020A6157F097EF3
:10063E00007D007C00120AC8EF600720A604D206D7
:10064E008002C20620A5157F097E007D007C001267
:10065E000AC8EF600720A504D2038002C20320A4BB
:10066E00157F097E007D007C00120AC8EF6007200E
:10067E00A404D2078002C20720A3157F097E007D45
:10068E00007C00120AC8EF600720A304D204800287
:10069E00C20420A2157F097E007D007C00120AC8CC
:1006AE00EF600720A204D2058002C20520A1157FAB
:1006BE00097E007D007C00120AC8EF600720A104AD
:1006CE00D2018002C20120A0147F097E007D007C31
:1006DE0000120AC8EF600620A003D20222C2022234
:1004FE0000000000000000000000000000000000EE
:10050E0000000000000080000000000080E0FEF807
:10051E00E08000000000000000000000000000006D
:10052E00000000000000000000000080E0F0F8FC79
:10053E00FCFE7F7F3FFFFFFFFF7F3F3F3F7F7FFF41
:10054E00FFFFCF78E0000000000000000000000078
:10055E000000000010303878F8F8F8FFFF0F0301A4
:10056E00C8C0C8C000000303010000C0C000C080A6
:10057E00010307FEFFFF0000804040404040404026
:10058E0000000000000000008001034F3F38000013
:10059E0023070F030E00000000000010070F0723B3
:1005AE00000000BF1F138823000000008080800021
:1005BE0008000004020001000000004000000000DE
:1005CE000004F830302020252424400010100800AC
:1005DE0000000001E100100800040201000000010B
:1005EE0040800000010820808000008046300020FE
:1005FE002010C780000010000000000000000080E6
:10060E00020000E0FB80000000000000000000007F
:020C3C00C18A6B
:090C9C00751C03751D84020B7028
:100BE100300009300A08120C93C20A22D20A750F8A
:100BF100307510FF7511047512FE7B30E4FD7F1214
:030C01001208BD19
:010C040022CD
:020C3E00C18B68
:090CA500751C00751DC8020B70DE
:100B4000300707300B26C20B8022300507300B1C04
:100B5000C20B8018300607300B12C20B800E30001B
:0F0B600009300B08120CAEC20B22D20B120C562E
:010B6F002263
:100C5600051EE4851E0DF50CF50BF50A7D037F32A6
:030C660002079FE3
:030CAE00020C93A2
:10083D0002093FE493A3F8E493A34003F68001F289
:10084D0008DFF48029E493A3F85407240CC8C333BC
:10085D00C4540F4420C8834004F456800146F6DF8B
:10086D00E4800B0102040810204080900C28E47EE7
:10087D00019360BCA3FF543F30E509541FFEE49380
:10088D00A360010ECF54C025E060A840B8E493A347
:10089D00FAE493A3F8E493A3C8C582C8CAC583CA72
:1008AD00F0A3C8C582C8CAC583CADFE9DEE780BE2A
:010C400000B3
:10023600BB010689828A83E0225002E722BBFE02C6
:09024600E32289828A83E49322F9
:10024F00BB010CE58229F582E5833AF583E0225064
:10025F0006E92582F8E622BBFE06E92582F8E222AE
:0D026F00E58229F582E5833AF583E49322C8
:10027C00EF8DF0A4A8F0CF8CF0A428CE8DF0A42E96
:02028C00FE2250
:10028E00BC000BBE0029EF8DF084FFADF022E4CC54
:10029E00F875F008EF2FFFEE33FEEC33FCEE9DEC1D
:1002AE00984005FCEE9DFE0FD5F0E9E4CEFD22ED63
:1002BE00F8F5F0EE8420D21CFEADF075F008EF2FAD
:1002CE00FFED33FD4007985006D5F0F222C398FD9E
:0502DE000FD5F0EA223B
:100A4300C2D5E830E70FB2D5E4C39BFBE49AFAE4DE
:100A530099F9E498F8EC30E717B2D5120A79120342
:100A63004AE4C39BFBE49AFAE499F9E498F8800317
:100A730012034A30D50DE4C39FFFE49EFEE49DFDBF
:040A8300E49CFC22D1
:0E02E300C3E49FFFE49EFEE49DFDE49CFC222C
:1002F100EB9FF5F0EA9E42F0E99D42F0E89C45F063
:0103010022D9
:0C030200A42582F582E5F03583F5832206
:100C4100E4FFFE120236600C0FEF70010E09E9702D
:050C5100F20A80EF2211
:10030E0075F008758200EF2FFFEE33FECD33CDCCA6
:10031E0033CCC58233C5829BED9AEC99E582984029
:10032E000CF582EE9BFEED9AFDEC99FC0FD5F0D606
:10033E00E4CEFBE4CDFAE4CCF9A88222B800C1B930
:10034E000059BA002DEC8BF084CFCECDFCE5F0CB6E
:10035E00F97818EF2FFFEE33FEED33FDEC33FCEBA7
:10036E0033FB10D703994004EB99FB0FD8E5E4F962
:10037E00FA227818EF2FFFEE33FEED33FDEC33FC4F
:10038E00C933C910D7059BE99A4007EC9BFCE99A43
:10039E00F90FD8E0E4C9FAE4CCFB2275F010EF2F88
:1003AE00FFEE33FEED33FDCC33CCC833C810D70788
:1003BE009BEC9AE899400AED9BFDEC9AFCE899F8C3
:0E03CE000FD5F0DAE4CDFBE4CCFAE4C8F92256
:00000001FF
